:100000000C9435000C945D000C945D000C945D0024
:100010000C945D000C9475020C945D000C945D00D2
:100020000C945D000C945D000C945D000C945D00DC
:100030000C945D000C945D000C945D000C945D00CC
:100040000C94F8010C945D000C945D000C945D0020
:100050000C945D000C945D000C945D000C945D00AC
:100060000C945D000C945D00860511241FBECFEF3B
:10007000D8E0DEBFCDBF11E0A0E0B1E0E0EFF4E1F9
:1000800002C005900D92A234B107D9F722E0A2E494
:10009000B1E001C01D92AE31B207E1F710E0C5E357
:1000A000D0E004C02197FE010E94A305C433D1070C
:1000B000C9F70E947B020C94760A0C940000089504
:1000C000CF93DF9300D000D0CDB7DEB769837A83BA
:1000D0008B839C8340E250E060E070E08EEF91E023
:1000E0000E946E078C818F939B819F938A818F934F
:1000F00099819F9380E091E09F938F938EEF91E0A1
:100100009F938F930E947E070FB6F894DEBF0FBEB9
:10011000CDBF8EEF91E00F900F900F900F90DF9179
:10012000CF910895CF93DF9300D000D0CDB7DEB745
:1001300069837A838B839C8340E250E060E070E0C7
:100140008EED91E00E946E078C818F939B819F932F
:100150008A818F9399819F938CE091E09F938F93F5
:100160008EED91E09F938F930E947E070FB6F894D7
:10017000DEBF0FBECDBF8EED91E00F900F900F90C0
:100180000F90DF91CF910895CF93DF93CDB7DEB776
:100190002A970FB6F894DEBF0FBECDBFAB01BC01EE
:1001A00049835A838B837C8340E250E060E070E0B7
:1001B0008EEB91E00E946E0740E050E09A01698169
:1001C0007A818B819C810E94160687FD4AC08BE054
:1001D00091E089879A8769817A818B819C810E94CD
:1001E0001B066D837E838F8398870E944A069B013E
:1001F000AC0169817A818B819C810E94A90520E0F4
:1002000030E44CE156E40E9401070E941B069F93D4
:100210008F937F936F9398859F93AF81AF93BE81A8
:10022000BF938D818F939A859F93A985AF938AE120
:1002300091E09F938F938EEB91E09F938F930E9419
:100240007E070FB6F894DEBF0FBECDBF8EEB91E0F8
:100250002A960FB6F894DEBF0FBECDBFDF91CF91C7
:10026000089589819A81AB81BC81B05889839A8332
:10027000AB83BC83A8E1B1E0A987BA87ACCFCF93A9
:10028000DF93CDB7DEB72A970FB6F894DEBF0FBE67
:10029000CDBFAB01BC0149835A838B837C8340E291
:1002A00050E060E070E08EE991E00E946E0740E06F
:1002B00050E09A0169817A818B819C810E941606A7
:1002C00087FD4AC08BE091E089879A8769817A81AE
:1002D0008B819C810E941B066D837E838F83988710
:1002E0000E944A069B01AC0169817A818B819C81C5
:1002F0000E94A90520E23CEB4EEB5CE40E94010762
:100300000E941B069F938F937F936F9398859F9373
:10031000AF81AF93BE81BF938D818F939A859F9359
:10032000A985AF938EE291E09F938F938EE991E040
:100330009F938F930E947E070FB6F894DEBF0FBE87
:10034000CDBF8EE991E02A960FB6F894DEBF0FBEBE
:10035000CDBFDF91CF91089589819A81AB81BC8116
:10036000B05889839A83AB83BC83A8E1B1E0A987A5
:10037000BA87ACCFCF93C82F49E050E060E070E07F
:1003800085E991E00E946E078C2F90E0880F892FFD
:10039000881F990B805D80939C0180E3C6FD81E3FB
:1003A00080939B0180E3C5FD81E380939A0180E304
:1003B000C4FD81E38093990180E3C3FD81E38093D1
:1003C000980180E3C2FD81E38093970180E3C1FD42
:1003D00081E380939601C170C05DC09395018AE06E
:1003E00080939D0110929E0185E991E0CF9108953F
:1003F0001F920F920FB60F9211242F933F934F939A
:100400005F936F937F938F939F93AF93BF93EF937C
:10041000FF938091910190919201A0919301B091ED
:1004200094010196A11DB11D8093910190939201B9
:10043000A0939301B093940116BCE0918F01F091C9
:1004400090010995FF91EF91BF91AF919F918F918D
:100450007F916F915F914F913F912F910F900FBEC0
:100460000F901F901895FC01808121E001C0220FA0
:100470006A95EAF7822B80830895FC01208181E050
:1004800001C0880F6A95EAF78095822380830895DA
:10049000FC01808121E001C0220F6A95EAF78227E2
:1004A00080830895FC01208181E0062E01C0880F21
:1004B0000A94EAF78095822301C0440F6A95EAF70F
:1004C000842B808308958091780191E0892780931F
:1004D00078018091C00085FD04C08091C00085FF37
:1004E000FCCF81E68093C60008958F9389B18093F5
:1004F00042018F91189500D000D00F92CDB7DEB792
:1005000078941092C50093E09093C4008EE380939A
:10051000C2008091C10088618093C10081E0809316
:10052000C00016BC95BD14BC80936E0078942FE576
:1005300030E020938F0130939001219A229A239AE0
:10054000249A259A52988093850153988093860126
:10055000549880938701809168008460809368003C
:1005600080916D00846080936D0080916D00886043
:1005700080936D0080916D00806180936D00CC242C
:10058000C39491E6892E2CE0A22E21E0B22E609138
:10059000910170919201809193019091940116B50F
:1005A0000E944A0625E831EB45E85AE30E9401071C
:1005B0006A837B838C839D83612F70E080E090E071
:1005C0000E944C062DEB37E346E856E30E940107F4
:1005D0009B01AC016A817B818C819D810E94AA056F
:1005E0007B018C01209148013091490140914A01E1
:1005F00050914B010E94A9059F7720E030E040E038
:100600005FE30E94FC061816BCF4E0924801F092E9
:10061000490100934A0110934B01809178018C2588
:10062000809378018091C00085FD04C08091C00056
:1006300085FFFCCF8092C60080919101909192013C
:10064000A0919301B091940186B5609042016094AD
:10065000F0906A01609191017091920180919301F3
:100660009091940116B50E944A0625E831EB45E8C1
:100670005AE30E9401076A837B838C839D83612FE9
:1006800070E080E090E00E944C062DEB37E346E8F6
:1006900056E30E9401079B01AC016A817B818C813A
:1006A0009D810E94AA0562FC22C250916F01409177
:1006B00070013091710120917201F901252F342FC1
:1006C0004F2F5E2F0E94A9059F77209166013091E0
:1006D000670140916801509169010E94FC0618165B
:1006E0000CF001C2EF2CEC2480E080936A01809131
:1006F000910190919201A0919301B091940186B5DE
:1007000000915D016091910170919201809193013E
:100710009091940116B50E944A0625E831EB45E810
:100720005AE30E9401076A837B838C839D83612F38
:1007300070E080E090E00E944C062DEB37E346E845
:1007400056E30E9401079B01AC016A817B818C8189
:100750009D810E94AA0563FCB7C150915E01409142
:100760005F013091600120916101F901252F342F43
:100770004F2F5E2F0E94A9059F772091590130913C
:100780005A0140915B0150915C010E94FC061816D1
:100790000CF497C1072180E080935D018091910165
:1007A00090919201A0919301B091940186B510911E
:1007B000500160919101709192018091930190910B
:1007C000940176B40E944A0625E831EB45E85AE3E5
:1007D0000E9401076A837B838C839D83672D70E071
:1007E00080E090E00E944C062DEB37E346E856E3AC
:1007F0000E9401079B01AC016A817B818C819D81F4
:100800000E94AA0564FC50C15091510140915201CF
:100810003091530120915401F901252F342F4F2F8E
:100820005E2F0E94A9059F7720914C0130914D01C8
:1008300040914E0150914F010E94FC0618160CF495
:1008400030C1192180E08093500180914501E092F0
:1008500045018F219091470189278027782E7126A5
:10086000709247016090430191E0811390E0909372
:100870004301672081E0D61080E0982E9720892DD3
:100880008C25809375018091C000598087FF03C03B
:100890005090C600598240E250E060E070E08EED7A
:1008A00091E00E946E071F921F921F925F92BF926B
:1008B000AF928EED91E09F938F930E947E0780917F
:1008C000C0000FB6F894DEBF0FBECDBF85FD04C0DB
:1008D0008091C00085FFFCCF8EEDE82E81E0F82EE0
:1008E00000E010E08EED91E00E94750708171907EF
:1008F00008F012C08091C00085FFFCCFF701819104
:100900007F018093C6000F5F1F4F8EED91E00E9424
:1009100075070817190770F380917401511419F0C5
:100920008C2580937401D6247D2025B12E7F909153
:100930007301922B95B995B1880F9D7F892B85B94D
:1009400095B180917501880F880F9B7F892B85B9A0
:1009500095B180917601880F880F880F977F892B3A
:1009600085B995B1809177018295807F9F7E892B93
:1009700085B995B1809178018295880F807E9F7DA1
:10098000892B85B995B1809179018295880F880F5F
:10099000807C9F7B892B85B980917A0180FD2F9A7D
:1009A00080FF2F9898B19E7F80917B01892B88B919
:1009B00098B180917C01880F9D7F892B88B998B16F
:1009C00080917D01880F880F9B7F892B88B998B112
:1009D00080917E01880F880F880F977F892B88B9B7
:1009E00098B180917F018295807F9F7E892B88B905
:1009F00098B1809180018295880F807E9F7D892BA0
:100A000088B998B1809181018295880F880F807C88
:100A10009F7B892B88B98091820180FD479A80FF56
:100A200047989BB19E7F80918301892B8BB99BB1A5
:100A300080918401880F9D7F892B8BB99BB1809118
:100A40008501880F880F9B7F892B8BB99BB1809183
:100A50008601880F880F880F977F892B8BB99BB1F0
:100A6000809187018295807F9F7E892B8BB99BB176
:100A7000809188018295880F807E9F7D892B8BB91C
:100A80009BB1809189018295880F880F807C9F7B24
:100A9000892B8BB980918A0180FD5F9A80FF5F98D6
:100AA00076CD81E010E0CFCE562F472F382F292F5B
:100AB00060935101709352018093530190935401BC
:100AC000ABCE81E000E068CE9B01AC0160935E019B
:100AD00030935F018093600150936101562F472F3F
:100AE000382F292F42CE81E0F12CE82EFECD8B014C
:100AF0009C0160936F01109370018093710130939A
:100B00007201562F472F382F292FD7CD8DEC9CEC13
:100B1000ACECBDE38093660190936701A0936801FC
:100B2000B09369018093590190935A01A0935B019E
:100B3000B0935C0180934C0190934D01A0934E01C2
:100B4000B0934F010895EE0FFF1F0590F491E02D33
:100B500009945058BB27AA270E94C1050C94C206CD
:100B60000E94B40638F00E94BB0620F039F49F3F83
:100B700019F426F40C94B1060EF4E095E7FB0C94FE
:100B8000AB06E92F0E94D30658F3BA176207730722
:100B90008407950720F079F4A6F50C94F5060EF479
:100BA000E0950B2EBA2FA02D0B01B90190010C017D
:100BB000CA01A0011124FF27591B99F0593F50F495
:100BC000503E68F11A16F040A22F232F342F4427ED
:100BD000585FF3CF469537952795A795F0405395E5
:100BE000C9F77EF41F16BA0B620B730B840BBAF0B5
:100BF0009150A1F0FF0FBB1F661F771F881FC2F720
:100C00000EC0BA0F621F731F841F48F48795779533
:100C10006795B795F7959E3F08F0B0CF9395880FED
:100C200008F09927EE0F9795879508950E948706FB
:100C300008F481E008950E94DB0688F09F5798F041
:100C4000B92F9927B751B0F0E1F0660F771F881FD1
:100C5000991F1AF0BA95C9F714C0B13091F00E94EB
:100C6000F506B1E008950C94F506672F782F8827D4
:100C7000B85F39F0B93FCCF3869577956795B39512
:100C8000D9F73EF490958095709561957F4F8F4F81
:100C90009F4F0895E89409C097FB3EF49095809586
:100CA000709561957F4F8F4F9F4F9923A9F0F92F32
:100CB00096E9BB279395F695879577956795B795B0
:100CC000F111F8CFFAF4BB0F11F460FF1BC06F5F96
:100CD0007F4F8F4F9F4F16C0882311F096E911C0A8
:100CE000772321F09EE8872F762F05C0662371F0C9
:100CF00096E8862F70E060E02AF09A95660F771FDD
:100D0000881FDAF7880F9695879597F90895990FB8
:100D10000008550FAA0BE0E8FEEF16161706E807C5
:100D2000F907C0F012161306E407F50798F0621BE6
:100D3000730B840B950B39F40A2661F0232B242BBB
:100D4000252B21F408950A2609F4A140A6958FEFDA
:100D5000811D811D089597F99F6780E870E060E02C
:100D600008959FEF80EC089500240A941616170644
:100D700018060906089500240A941216130614068C
:100D800005060895092E0394000C11F4882352F0EF
:100D9000BB0F40F4BF2B11F460FF04C06F5F7F4FA7
:100DA0008F4F9F4F089557FD9058440F551F59F08E
:100DB0005F3F71F04795880F97FB991F61F09F3F48
:100DC00079F087950895121613061406551FF2CF71
:100DD0004695F1DF08C0161617061806991FF1CFC1
:100DE00086957105610508940895E894BB276627E8
:100DF0007727CB0197F908950E94870608F48FEFB3
:100E000008950E9414070C94C2060E94B40638F09C
:100E10000E94BB0620F0952311F00C94AB060C94B5
:100E2000B10611240C94F6060E94D30670F3959F28
:100E3000C1F3950F50E0551F629FF001729FBB27D1
:100E4000F00DB11D639FAA27F00DB11DAA1F649F6D
:100E50006627B00DA11D661F829F2227B00DA11D20
:100E6000621F739FB00DA11D621F839FA00D611DA6
:100E7000221F749F3327A00D611D231F849F600DC7
:100E8000211D822F762F6A2F11249F5750409AF0F0
:100E9000F1F088234AF0EE0FFF1FBB1F661F771F7C
:100EA000881F91505040A9F79E3F510580F00C9447
:100EB000AB060C94F6065F3FE4F3983ED4F38695B8
:100EC00077956795B795F795E7959F5FC1F7FE2BE7
:100ED000880F911D9695879597F90895DC0101C0BB
:100EE0006D9341505040E0F70895FC0101900020BF
:100EF000E9F7809590958E0F9F1F0895AEE0B0E0C2
:100F0000E4E8F7E00C944F0A86E08C832B893C8957
:100F100029833A838FEF9FE78D839E83AE01495EDD
:100F20005F4F6D897E89CE0101960E94A207EF81F5
:100F3000F8852B893C89E20FF31F10822E96E2E0A0
:100F40000C946B0AABE0B0E0E8EAF7E00C94420ADC
:100F50006C017B018A01FC0116821782838181FF6B
:100F6000DFC13AE0532EF6012381F70123FD85917D
:100F700023FF81917F01811509F437C1853239F44E
:100F800023FD959123FF91917F01953229F4B601BC
:100F900090E00E94A909E7CF30E0912C612C712CE0
:100FA000F0E27F1640F59B32D9F058F49032D1F040
:100FB0009332F1F09E3291F576FC17C1689476F881
:100FC00006C09D3291F09033C1F4689470F8F70137
:100FD00023FD959123FF91917F019111E1CF28C0CD
:100FE000689471F8689472F8F2CF689473F8EFCF50
:100FF000689474F8ECCF77FC1BC080ED890F8A30C1
:10100000C8F676FE05C0959C800D1124982EDFCF82
:10101000659C800D1124682E7F2AD9CF9C3619F447
:10102000689477F8D4CF9C3409F445C0983679F2A7
:10103000892F8F7D8554833008F43FC0933609F49F
:1010400061C0933709F46BC0933509F477C09436C7
:1010500019F0993609F0A4C0F80177FE9AC06191A1
:101060007191819191918F01272D2F76822E97FF7B
:1010700004C00E94370A689487F82AE030E05E01D5
:101080004FEFA41AB40AA5010E94D909782E7A1844
:1010900086FECFC0882D8E7F791408F0C9C084FEEB
:1010A0001DC182FC11C12EEE8222B92C882D8678BA
:1010B00009F4CBC00EC131E08ACF311501F1085FD0
:1010C0001F4F8FE3898321E0822E912C5E012FEF49
:1010D000A21AB20AE89477F873FC03C0861491044C
:1010E000F0F18114910409F041C0611409F43BCF7F
:1010F000B60180E290E00E94A9096A94F6CF0C5FE5
:101100001F4FDFCFF801808189830E5F1F4F91E071
:10111000892E912C5E01FFEFAF1ABF0ADBCFF801D9
:10112000A190B1908F01692D70E076FC02C06FEF45
:101130007FEFC5010E949E094C01CCCFF801A19020
:10114000B1908F01692D70E076FC02C06FEF7FEFE8
:10115000C5010E9493094C01689477F8BDCFB60190
:1011600080E290E00E94A9096A94B8CFF50177FC6B
:10117000859177FE81915F01B60190E00E94A909F7
:1011800081E0611001C080E0681AF1E08F1A9108D7
:10119000A8CF61917191872F880F880B982F63CF0B
:1011A0009537C9F4872CE89484F82AE030E0F801F8
:1011B00087FE39C061917191819191918F015E019A
:1011C000FFEFAF1ABF0AA5010E94D909782E7A183D
:1011D000E89487F85DCF872D897F882E903799F026
:1011E00058F49835A9F09F36D9F0F6018681978199
:1011F0002B96EFE00C945E0A9837B9F774FC05C0A3
:1012000020E130E0D4CF689484F8689482F8F8CF75
:1012100074FE03C0E72DE6608E2E20E132E0C7CFDA
:1012200028E030E0C4CF6191719180E090E0C6CFBA
:10123000882EB72C84FE3ACFFE01E70DF11D808188
:10124000803309F044C049EE842283FC0EC080FE46
:1012500051C0972CB61418F4960C9B18B62C862DFA
:101260008B196B1408F480E0B80EB61408F044C073
:101270006B1884FE43C0B60180E390E00E94A90988
:1012800082FE09C088E590E081FC02C088E790E01A
:10129000B6010E94A9097914E0F15E018FEFA81A46
:1012A000B80A7A9482E0882E912C8C0E9D1E870CB1
:1012B000911CF40182914F01B60190E00E94A909AE
:1012C0008A149B04B1F711CFB92C882EB5CF82FCBC
:1012D00002C0B394BACFB394B394B7CFB92C882ECD
:1012E000E5CEB60180E290E00E94A909A394A6147D
:1012F000C0F3B5CFAB2CFBCF612CBBCF882D86784C
:1013000051F280E281FC8BE287FC8DE2B60190E035
:10131000C0CFB60180E390E00E94A9099A94BBCFA8
:101320008FEF9FEF65CFFC01059061507040011079
:10133000D8F7809590958E0F9F1F0895FC016150FE
:10134000704001900110D8F7809590958E0F9F1FE7
:1013500008950F931F93CF93DF93182F092FEB015D
:101360008B8181FD09C00FEF1FEF812F902FDF913F
:10137000CF911F910F91089582FF14C02E813F815C
:101380008C819D81281739073CF4E881F981CF01D0
:1013900001968883998310838E819F8101968E8325
:1013A0009F83E3CFE885F985812F0995892BA1F3E8
:1013B000DACFFA01AA27283051F1203181F1E894DF
:1013C0006F936E7F6E5F7F4F8F4F9F4FAF4FB1E038
:1013D0003ED0B4E03CD0670F781F891F9A1FA11D33
:1013E000680F791F8A1F911DA11D6A0F711D811D34
:1013F000911DA11D20D009F468943F912AE0269FF9
:1014000011243019305D3193DEF6CF010895462F57
:101410004770405D4193B3E00FD0C9F7F6CF462F38
:101420004F70405D4A3318F0495D31FD40524193A1
:1014300002D0A9F7EACFB4E0A6959795879577955E
:101440006795BA95C9F700976105710508959B01E5
:10145000AC010A2E06945795479537952795BA956E
:10146000C9F7620F731F841F951FA01D08959095E3
:101470008095709561957F4F8F4F9F4F08952F9264
:101480003F924F925F926F927F928F929F92AF9214
:10149000BF92CF92DF92EF92FF920F931F93CF9361
:1014A000DF93CDB7DEB7CA1BDB0B0FB6F894DEBFF8
:1014B0000FBECDBF09942A88398848885F846E841E
:1014C0007D848C849B84AA84B984C884DF80EE8068
:1014D000FD800C811B81AA81B981CE0FD11D0FB671
:1014E000F894DEBF0FBECDBFED010895F894FFCF95
:1014F00056616C75653A20256C690A0056616C75F9
:10150000653A20256C750A002D0056616C75653AA8
:10151000202573256C752E2530346C750A005661B4
:101520006C75653A202573256C752E2530386C75E1
:021530000A00AF
:00000001FF
