:100000000C9435000C945D000C945D000C945D0024
:100010000C945D000C94BC020C945D000C945D008B
:100020000C945D000C945D000C945D000C945D00DC
:100030000C945D000C945D000C945D000C945D00CC
:100040000C94ED010C945D000C945C020C945D002A
:100050000C949D020C945D000C945D000C945D006A
:100060000C945D000C945D002C0711241FBECFEF93
:10007000D8E0DEBFCDBF11E0A0E0B1E0ECEFF7E1EA
:1000800002C005900D92A634B107D9F722E0A6E48C
:10009000B1E001C01D92AC32B207E1F710E0C5E358
:1000A000D0E004C02197FE010E944907C433D10764
:1000B000C9F70E94CB020C94FC0B0C94000008952D
:1000C0000F931F93CF93DF93EB01182F092F40E27B
:1000D00050E070E060E08CE092E00E9414090F9321
:1000E0001F93DF93CF9381E091E09F938F938CE0F8
:1000F00092E09F938F930E9424098DB79EB7089634
:100100000FB6F8949EBF0FBE8DBF8CE092E0DF91DA
:10011000CF911F910F9108950F931F93CF93DF936A
:10012000EB01182F092F40E250E070E060E08CEE08
:1001300091E00E9414090F931F93DF93CF938DE0FA
:1001400091E09F938F938CEE91E09F938F930E9409
:1001500024098DB79EB708960FB6F8949EBF0FBEC0
:100160008DBF8CEE91E0DF91CF911F910F9108959B
:10017000AF92BF92CF92DF92EF92FF920F931F93B5
:10018000CF93DF936B017C0140E250E070E060E0D0
:100190008CEC91E00E94140920E030E0A901C70135
:1001A000B6010E94BC07C5E4D1E087FF06C0F7FA9C
:1001B000F094F7F8F094C9E1D1E0C701B6010E94CC
:1001C000C107162F072FB82EA92E0E94F0079B01FA
:1001D000AC01C701B6010E944F0720E030E44CE1BA
:1001E00056E40E94A7080E94C1079F938F937F93B4
:1001F0006F93AF92BF920F931F93DF93CF938BE1D7
:1002000091E09F938F938CEC91E09F938F930E944A
:1002100024098DB79EB70E960FB6F8949EBF0FBEF9
:100220008DBF8CEC91E0DF91CF911F910F91FF90EA
:10023000EF90DF90CF90BF90AF900895AF92BF92B4
:10024000CF92DF92EF92FF920F931F93CF93DF93A2
:100250006B017C0140E250E070E060E08CEA91E0EC
:100260000E94140920E030E0A901C701B6010E94F4
:10027000BC07C5E4D1E087FF06C0F7FAF094F7F8B1
:10028000F094C9E1D1E0C701B6010E94C107162F61
:10029000072FB82EA92E0E94F0079B01AC01C701C1
:1002A000B6010E944F0720E23CEB4EEB5CE40E945B
:1002B000A7080E94C1079F938F937F936F93AF927C
:1002C000BF920F931F93DF93CF938FE291E09F93A1
:1002D0008F938CEA91E09F938F930E9424098DB7AE
:1002E0009EB70E960FB6F8949EBF0FBE8DBF8CEAD8
:1002F00091E0DF91CF911F910F91FF90EF90DF90F0
:10030000CF90BF90AF900895CF93C82F49E050E0B1
:1003100070E060E083EA91E00E9414098C2F90E085
:100320009C01220F232F221F330B232B79F121E372
:100330002093AA0186FF2FC021E32093A90185FF06
:100340002FC021E32093A80184FF2FC021E3209335
:10035000A70183FF2FC021E32093A60182FF2FC0B6
:1003600021E32093A50181FF2FC081E38093A401A5
:10037000C0FF2FC081E38093A3018AE08093AB018B
:100380001092AC0183EA91E0CF91089520E320938D
:10039000AA0186FDD1CF20E32093A90185FDD1CF0D
:1003A00020E32093A80184FDD1CF20E32093A7016F
:1003B00083FDD1CF20E32093A60182FDD1CF20E39E
:1003C0002093A50181FDD1CF80E38093A401C0FDDE
:1003D000D1CF80E38093A301D0CF1F920F920FB6AD
:1003E0000F9211242F933F934F935F936F937F93BB
:1003F0008F939F93AF93BF93EF93FF9380919F0150
:100400009091A001A091A101B091A2010196A11D1E
:10041000B11D80939F019093A001A093A101B0937F
:10042000A20116BCE0919D01F0919E010995FF91FA
:10043000EF91BF91AF919F918F917F916F915F915C
:100440004F913F912F910F900FBE0F901F901895D5
:10045000FC01908121E030E001C0220F6A95EAF7AB
:10046000922B90830895FC01408121E030E001C08F
:10047000220F6A95EAF72095242320830895FC0132
:10048000908121E030E001C0220F6A95EAF79227BF
:1004900090830895FC01508121E030E0062E01C0D8
:1004A000220F0A94EAF72095252301C0440F6A958C
:1004B000EAF7242B208308951F920F920FB60F9214
:1004C00011248F939F9380917F01909180010196D9
:1004D0009093800180937F018091C00087FD28C0A8
:1004E00080917E0190917A01992321F080937C0183
:1004F00010927A0190917B01992339F080937D01CC
:1005000010927B0191E090937A01811104C0909147
:1005100000019F3F49F0809300019F918F910F90C0
:100520000FBE0F901F90189591E090937B01F3CF31
:100530008091C60080937E01D5CF1F920F920FB697
:100540000F9211240F900FBE0F901F90189580915D
:10055000860191E08927809386018091C00085FD06
:1005600004C08091C00085FFFCCF80E28093C6006C
:1005700081E08093470108951F920F920FB60F926A
:1005800011248F9389B1809346018F910F900FBEF4
:100590000F901F901895F8941092C50093E09093D7
:1005A000C4008091C20086608093C2008091C10027
:1005B000886D8093C10081E08093C00016BC95BD1A
:1005C00014BC80936E0078942FE530E030939E0148
:1005D00020939D01219A229A239A249A259A52982F
:1005E000809393015398809394015498809395013C
:1005F0008091680084608093680080916D008460C1
:1006000080936D0080916D00886080936D00809173
:100610006D00806180936D007894EE24E394BB2498
:10062000BA9488ECA82E92E0992E0DE011E0D0C18A
:1006300070917601609177019091780180917901B4
:10064000272F362F492F582F6F2F7A2F8B2F9E2F22
:100650000E944F079F7720916D0130916E0140916C
:100660006F01509170010E94A20818160CF4C5C2C7
:10067000E092710188248394D12C80919F01909104
:10068000A001A091A101B091A20186B520906401C2
:1006900060919F017091A0018091A1019091A201B0
:1006A00036B40E94F00725E831EB45E85AE30E9492
:1006B000A7082B013C01632D70E090E080E00E94D0
:1006C000F2072DEB37E346E856E30E94A7089B01AB
:1006D000AC01C301B2010E945007B62FA72FF82F1B
:1006E000E92FC3FD7BC27091650160916601909115
:1006F000670180916801272F362F492F582F6B2FC4
:100700007A2F8F2F9E2F0E944F079F772091600195
:100710003091610140916201509163010E94A208F1
:1007200018160CF048C2E0926401C12C80919F0120
:100730009091A001A091A101B091A20186B5309045
:10074000570160919F017091A0018091A10190914A
:10075000A20126B40E94F00725E831EB45E85AE3F0
:100760000E94A7082B013C01622D70E090E080E020
:100770000E94F2072DEB37E346E856E30E94A708F4
:100780009B01AC01C301B2010E945007B62FA72FF5
:10079000F82FE92FC4FD13C27091580160915901DF
:1007A00090915A0180915B01272F362F492F582FA6
:1007B0006B2F7A2F8F2F9E2F0E944F079F772091AC
:1007C00053013091540140915501509156010E94BE
:1007D000A20818160CF0EBC1E0925701F12C8091A1
:1007E0004C0180924C01D82280914E01D826CD2414
:1007F0008C2D8F2580934E0190914A0121E0CF10DE
:1008000020E020934A019823DD2ED926C82ECD2042
:1008100021E0D91320E0F22EF8228F2D8E2580932F
:10082000830180917A01882309F4E2C28091470113
:10083000811153C11092470180917E018F3F09F4CD
:10084000D1C28091820195B19E7F20918101922B2E
:1008500095B995B1880F9D7F892B85B995B1809108
:100860008301880F880F9B7F892B85B995B1809173
:100870008401880F880F880F977F892B85B985B1F0
:100880002091850190E1299F900111248F7E822B78
:1008900085B985B12091860190E2299F90011124AC
:1008A0008F7D822B85B985B12091870190E4299FA6
:1008B000900111248F7B822B85B98091880180FD66
:1008C0002F9A80FF2F9888B18E7F90918901892B74
:1008D00088B998B180918A01880F9D7F892B88B94A
:1008E00098B180918B01880F880F9B7F892B88B9E5
:1008F00098B180918C01880F880F880F977F892B82
:1009000088B988B120918D0190E1299F900111242F
:100910008F7E822B88B988B120918E0190E2299F29
:10092000900111248F7D822B88B988B120918F018D
:1009300090E4299F900111248F7B822B88B98091AC
:10094000900180FD479A80FF47988BB18E7F9091F0
:100950009101892B8BB99BB180919201880F9D7F6A
:10096000892B8BB99BB180919301880F880F9B7F56
:10097000892B8BB99BB180919401880F880F880FC8
:10098000977F892B8BB98BB12091950190E1299F9D
:10099000900111248F7E822B8BB98BB1209196010F
:1009A00090E2299F900111248F7D822B8BB98BB10E
:1009B0002091970190E4299F900111248F7B822B35
:1009C0008BB98091980180FD5F9A80FF5F98DD2D43
:1009D00060919F017091A0018091A1019091A2016D
:1009E000C6B50E94F00725E831EB45E85AE30E94BE
:1009F000A7082B013C016C2F70E090E080E00E9482
:100A0000F2072DEB37E346E856E30E94A7089B0167
:100A1000AC01C301B2010E9450072B013C0120919F
:100A20004F013091500140915101509152010E946B
:100A30004F079F7720E030E040E05FE30E94A2088C
:100A400018160CF4EEC180919F019091A001A09125
:100A5000A101B091A20186B5C0914601C095D09088
:100A6000710160919F017091A0018091A10190910D
:100A7000A20186B40E94F00725E831EB45E85AE36D
:100A80000E94A7082B013C01682D70E090E080E0F7
:100A90000E94F2072DEB37E346E856E30E94A708D1
:100AA0009B01AC01C301B2010E945007F62FA72F92
:100AB000B82FE92FC2FFBCCD462F572F682F792FB3
:100AC0004093760150937701609378017093790198
:100AD0007F2F6A2F982F8E2FB3CD8091C00085FF76
:100AE000FCCFB092C6008091C00085FD04C080910B
:100AF000C00085FFFCCF1092C6008091C00085FD2C
:100B000004C08091C00085FFFCCFE092C6008091B8
:100B1000C00085FD04C08091C00085FFFCCFA0927D
:100B2000C6008091C00085FD04C08091C00085FF93
:100B3000FCCFB092C6008091C00085FD04C08091BA
:100B4000C00085FFFCCF1092C6008091C00085FDDB
:100B500004C08091C00085FFFCCF9092C6008091B8
:100B6000C00085FD04C08091C00085FFFCCF3AEF36
:100B70003093C6008091C00085FD04C08091C00004
:100B800085FFFCCFC3E4D1E083E491E00E941B0920
:100B90009E01235431402817390708F033C0809153
:100BA000C00085FFFCCF89918093C600EDCF1092E5
:100BB0005701F32014CE10926401C220B7CD462F06
:100BC000572F682F792F4093580150935901609304
:100BD0005A0170935B01BD01CF01E6CD462F572F1F
:100BE000682F792F409365015093660160936701E8
:100BF00070936801BD01CF017ECD109271018D2CE3
:100C00008E243BCDC0917D0140E250E070E060E079
:100C10008CEE91E00E9414091F921F921F92CF93B5
:100C20001F930F938CEE91E09F938F930E94240962
:100C30008091C0002DB73EB7285F3F4F0FB6F894A4
:100C40003EBF0FBE2DBF85FD04C08091C00085FF53
:100C5000FCCFCCEED1E08CEE91E00E941B099E010E
:100C60002C5E31402817390708F008C08091C00079
:100C700085FFFCCF89918093C600EDCFC0917C01A8
:100C800040E250E070E060E08CEE91E00E941409D8
:100C90001F921F921F92CF931F930F938CEE91E0A0
:100CA0009F938F930E9424098091C0002DB73EB777
:100CB000285F3F4F0FB6F8943EBF0FBE2DBF85FD96
:100CC00004C08091C00085FFFCCFCCEED1E08CEE5B
:100CD00091E00E941B099E012C5E314028173907C4
:100CE00008F008C08091C00085FFFCCF89918093F7
:100CF000C600EDCFC091490140E250E070E060E0F5
:100D00008CEE91E00E9414091F921F921F92CF93C4
:100D10001F930F938CEE91E09F938F930E94240971
:100D20008091C0002DB73EB7285F3F4F0FB6F894B3
:100D30003EBF0FBE2DBF85FD04C08091C00085FF62
:100D4000FCCFCCEED1E08CEE91E00E941B099E011D
:100D50002C5E31402817390708F008C08091C00088
:100D600085FFFCCF89918093C600EDCFC0914801EB
:100D700040E250E070E060E08CEE91E00E941409E7
:100D80001F921F921F92CF931F930F938CEE91E0AF
:100D90009F938F930E9424098091C0002DB73EB786
:100DA000285F3F4F0FB6F8943EBF0FBE2DBF85FDA5
:100DB00004C08091C00085FFFCCFCCEED1E08CEE6A
:100DC00091E00E941B099E012C5E314028173907D3
:100DD00008F030CD8091C00085FFFCCF89918093D1
:100DE000C600EDCF809182018E25809382012BCDAC
:100DF000F89480917D01813021F480917E0180936F
:100E00004901789480917A01811110CDF8948091F4
:100E10007D01823021F480917E0180934801789495
:100E200005CD40924F015092500160925101709255
:100E30005201809186018E25809386018091C000A9
:100E400085FD04C08091C00085FFFCCF20E2209387
:100E5000C600E0924701F7CD8DEC9CECACECBDE315
:100E600080936D0190936E01A0936F01B093700118
:100E70008093600190936101A0936201B09363013C
:100E80008093530190935401A0935501B093560160
:100E90000895EE0FFF1F0590F491E02D099450582E
:100EA000BB27AA270E9467070C9468080E945A086B
:100EB00038F00E94610820F039F49F3F19F426F4BD
:100EC0000C9457080EF4E095E7FB0C945108E92FB9
:100ED0000E94790858F3BA176207730784079507C9
:100EE00020F079F4A6F50C949B080EF4E0950B2EF7
:100EF000BA2FA02D0B01B90190010C01CA01A0016C
:100F00001124FF27591B99F0593F50F4503E68F1C6
:100F10001A16F040A22F232F342F4427585FF3CF07
:100F2000469537952795A795F0405395C9F77EF4D8
:100F30001F16BA0B620B730B840BBAF09150A1F021
:100F4000FF0FBB1F661F771F881FC2F70EC0BA0FA7
:100F5000621F731F841F48F4879577956795B7952F
:100F6000F7959E3F08F0B0CF9395880F08F099272A
:100F7000EE0F9795879508950E942D0808F481E05B
:100F800008950E94810888F09F5798F0B92F9927FB
:100F9000B751B0F0E1F0660F771F881F991F1AF064
:100FA000BA95C9F714C0B13091F00E949B08B1E026
:100FB00008950C949B08672F782F8827B85F39F025
:100FC000B93FCCF3869577956795B395D9F73EF4FD
:100FD00090958095709561957F4F8F4F9F4F0895A5
:100FE000E89409C097FB3EF49095809570956195C3
:100FF0007F4F8F4F9F4F9923A9F0F92F96E9BB2779
:101000009395F695879577956795B795F111F8CFF4
:10101000FAF4BB0F11F460FF1BC06F5F7F4F8F4F5F
:101020009F4F16C0882311F096E911C0772321F055
:101030009EE8872F762F05C0662371F096E8862FED
:1010400070E060E02AF09A95660F771F881FDAF744
:10105000880F9695879597F90895990F0008550F71
:10106000AA0BE0E8FEEF16161706E807F907C0F02E
:1010700012161306E407F50798F0621B730B840B36
:10108000950B39F40A2661F0232B242B252B21F410
:1010900008950A2609F4A140A6958FEF811D811DB0
:1010A000089597F99F6780E870E060E008959FEFEA
:1010B00080EC089500240A941616170618060906EF
:1010C000089500240A9412161306140605060895BE
:1010D000092E0394000C11F4882352F0BB0F40F446
:1010E000BF2B11F460FF04C06F5F7F4F8F4F9F4F86
:1010F000089557FD9058440F551F59F05F3F71F008
:101100004795880F97FB991F61F09F3F79F087956E
:101110000895121613061406551FF2CF4695F1DFF7
:1011200008C0161617061806991FF1CF8695710587
:10113000610508940895E894BB2766277727CB01BB
:1011400097F908950E942D0808F48FEF08950E94E2
:10115000BA080C9468080E945A0838F00E94610886
:1011600020F0952311F00C9451080C945708112489
:101170000C949C080E94790870F3959FC1F3950F19
:1011800050E0551F629FF001729FBB27F00DB11D0B
:10119000639FAA27F00DB11DAA1F649F6627B00D9B
:1011A000A11D661F829F2227B00DA11D621F739F84
:1011B000B00DA11D621F839FA00D611D221F749F92
:1011C0003327A00D611D231F849F600D211D822FD9
:1011D000762F6A2F11249F5750409AF0F1F0882300
:1011E0004AF0EE0FFF1FBB1F661F771F881F91502D
:1011F0005040A9F79E3F510580F00C9451080C9483
:101200009C085F3FE4F3983ED4F386957795679505
:10121000B795F795E7959F5FC1F7FE2B880F911D56
:101220009695879597F90895DC0101C06D9341501B
:101230005040E0F70895FC0101900020E9F7809507
:1012400090958E0F9F1F0895AEE0B0E0EAE2F9E0BE
:101250000C94D30B0D891E8986E08C831A83098335
:101260008FEF9FE79E838D83AE01475E5F4F6F894F
:10127000788DCE0101960E9447092F813885020F93
:10128000131FF80110822E96E4E00C94EF0BABE0F4
:10129000B0E0EDE4F9E00C94C50B7C013B018A0160
:1012A000FC0117821682838181FFC8C1CE0101969D
:1012B0005C01F7019381F30193FD859193FF819187
:1012C0003F01882309F453C1853239F493FD859198
:1012D00093FF81913F01853229F4B70190E00E948C
:1012E000370BE7CF912C212C312CFFE1F31538F08F
:1012F0008B3211F190F4803209F1833229F137FCFD
:101300003CC020ED280F2A3050F536FE20C08AE080
:10131000989E200D1124922E06C08D3291F08033BC
:1013200071F7689430F8F30193FD859193FF8191F3
:101330003F018111DACF21C0689431F8689432F806
:10134000F2CF689433F8EFCF689434F8ECCFEAE04A
:101350002E9E200D1124222E689435F8E4CF8E3273
:1013600029F436FC04C1689436F8DDCF8C3619F4C4
:10137000689437F8D8CF8836B1F2982F9F7D95546E
:101380009330E0F08336A1F18337C1F1833509F062
:1013900063C02801F2E04F0E511CF801C080D180DB
:1013A000692D70E036FC02C06FEF7FEFC6010E942E
:1013B000210B4C01689437F882010AC00C5F1F4F63
:1013C000FFE3F98388248394912C6501E89437F82E
:1013D00033FE2DC0522C8114910471F5552009F46F
:1013E00068CFB70180E290E00E94370B5A94F6CFA5
:1013F000F801808189830E5F1F4FE4CF2801F2E05E
:101400004F0E511CF801C080D180692D70E036FC70
:1014100002C06FEF7FEFC6010E942C0B4C018201CE
:10142000D5CFB70180E290E00E94370B2A942814B0
:10143000190409F0B0F7CECFF60137FC859137FEDD
:1014400081916F01B70190E00E94370B51105A94BF
:10145000F1E08F1A9108BFCF843619F0893609F070
:1014600077C0F80137FE6BC0608171818281938102
:101470000C5F1F4FF32DFF763F2E97FF09C090950D
:101480008095709561957F4F8F4F9F4F689437F887
:101490002AE030E0A5010E94670BC82ECA188C2CE8
:1014A000432C36FE0CC0E89440F8C91440F434FED6
:1014B00005C032FC03C0F32DFE7E4F2E892C44FE66
:1014C00095C0FE01EC0DF11D8081803309F087C0CD
:1014D000242D297E422E842D8870582E43FC95C0E1
:1014E00040FE8FC09C2C821418F42C0C922C98185F
:1014F00044FE91C0B70180E390E00E94370B42FEAA
:1015000009C088E790E041FE02C088E590E0B7019D
:101510000E94370BC91408F48AC0CA94D12C9FEFDB
:10152000C91AD90ACA0CDB1CF60182916F01B701F6
:1015300090E00E94370BAC14BD04B1F74FCF60812F
:101540007181072E000C880B990B0E5F1F4F92CFF5
:10155000D32CE894D4F82AE030E0853739F1232DF4
:10156000297FD22E8F3601F148F48835A9F0F70192
:10157000868197812B96E2E10C94E10B803749F04C
:101580008837A9F7D4FE02C06894D2F820E130E091
:101590000DC06894D4F8F6CF34FE03C0822F866065
:1015A000D82E20E132E002C028E030E0F801D7FE7A
:1015B0000FC060817181828193810C5F1F4FA501F3
:1015C0000E94670BC82ECA183D2CE89437F867CFE5
:1015D0006081718190E080E00E5F1F4FF0CF42FC90
:1015E00002C0839478CF8394839475CF842D8678BA
:1015F00009F471CFF6CFB70180E290E00E94370B7B
:1016000083948214C0F3512C73CF522C5818821437
:1016100008F46ECFF8CF842D867809F47BCF8BE267
:1016200041FE80E247FC8DE2B70190E071CFB70147
:1016300080E390E00E94370B9A946CCF8FEF9FEF7E
:1016400099CFFC010590615070400110D8F780954A
:1016500090958E0F9F1F0895FC016150704001907E
:101660000110D8F7809590958E0F9F1F08950F93C6
:101670001F93CF93DF93182F092FEB018B8181FDEF
:1016800009C01FEF0FEF812F902FDF91CF911F9196
:101690000F91089582FF14C02E813F818C819D811E
:1016A000281739073CF4E881F981CF010196998325
:1016B000888310838E819F8101969F838E83E3CFE1
:1016C000E885F985812F0995892BA1F3DACFFA01F5
:1016D000AA27283051F1203181F1E8946F936E7F71
:1016E0006E5F7F4F8F4F9F4FAF4FB1E03ED0B4E062
:1016F0003CD0670F781F891F9A1FA11D680F791FA3
:101700008A1F911DA11D6A0F711D811D911DA11DB3
:1017100020D009F468943F912AE0269F11243019C3
:10172000305D3193DEF6CF010895462F4770405D5E
:101730004193B3E00FD0C9F7F6CF462F4F70405D0D
:101740004A3318F0495D31FD4052419302D0A9F768
:10175000EACFB4E0A6959795879577956795BA9562
:10176000C9F700976105710508959B01AC010A2E28
:1017700006945795479537952795BA95C9F7620FFF
:10178000731F841F951FA01D08952F923F924F92A3
:101790005F926F927F928F929F92AF92BF92CF9201
:1017A000DF92EF92FF920F931F93CF93DF93CDB70A
:1017B000DEB7CA1BDB0B0FB6F894DEBF0FBECDBF82
:1017C00009942A88398848885F846E847D848C8453
:1017D0009B84AA84B984C884DF80EE80FD800C815C
:1017E0001B81AA81B981CE0FD11D0FB6F894DEBF3F
:0C17F0000FBECDBFED010895F894FFCFAF
:1017FC00FF56616C75653A20256C690A0056616C60
:10180C0075653A20256C750A002D0056616C75655E
:10181C003A202573256C752E2530346C750A0056CC
:10182C00616C75653A202573256C752E2530386CE6
:06183C00750A00200A00FD
:00000001FF
