:100000000C9435000C945D000C945D000C945D0024
:100010000C945D000C9478020C945D000C945D00CF
:100020000C945D000C945D000C945D000C945D00DC
:100030000C945D000C945D000C945D000C945D00CC
:100040000C94F8010C945D000C947E020C945D00FD
:100050000C945D000C945D000C945D000C945D00AC
:100060000C945D000C945D00600611241FBECFEF60
:10007000D8E0DEBFCDBF11E0A0E0B1E0E4EAF6E1F8
:1000800002C005900D92A035B107D9F722E0A0E596
:10009000B1E001C01D92A033B207E1F710E0C5E363
:1000A000D0E004C02197FE010E947D06C433D10731
:1000B000C9F70E94F1020C94500B0C9400000895B3
:1000C000CF93DF9300D000D0CDB7DEB769837A83BA
:1000D0008B839C8340E250E060E070E080E192E03E
:1000E0000E9448088C818F939B819F938A818F9374
:1000F00099819F9381E091E09F938F9380E192E0BB
:100100009F938F930E9458080FB6F894DEBF0FBEDE
:10011000CDBF80E192E00F900F900F900F90DF9194
:10012000CF910895CF93DF9300D000D0CDB7DEB745
:1001300069837A838B839C8340E250E060E070E0C7
:1001400080EF91E00E9448088C818F939B819F9360
:100150008A818F9399819F938DE091E09F938F93F4
:1001600080EF91E09F938F930E9458080FB6F89408
:10017000DEBF0FBECDBF80EF91E00F900F900F90CC
:100180000F90DF91CF910895CF93DF93CDB7DEB776
:100190002A970FB6F894DEBF0FBECDBFAB01BC01EE
:1001A00049835A838B837C8340E250E060E070E0B7
:1001B00080ED91E00E94480840E050E09A0169819A
:1001C0007A818B819C810E94F00687FD4AC08CE079
:1001D00091E089879A8769817A818B819C810E94CD
:1001E000F5066D837E838F8398870E9424079B0189
:1001F000AC0169817A818B819C810E94830620E019
:1002000030E44CE156E40E94DB070E94F5069F9320
:100210008F937F936F9398859F93AF81AF93BE81A8
:10022000BF938D818F939A859F93A985AF938BE11F
:1002300091E09F938F9380ED91E09F938F930E9425
:1002400058080FB6F894DEBF0FBECDBF80ED91E029
:100250002A960FB6F894DEBF0FBECDBFDF91CF91C7
:10026000089589819A81AB81BC81B05889839A8332
:10027000AB83BC83A9E1B1E0A987BA87ACCFCF93A8
:10028000DF93CDB7DEB72A970FB6F894DEBF0FBE67
:10029000CDBFAB01BC0149835A838B837C8340E291
:1002A00050E060E070E080EB91E00E94480840E0A0
:1002B00050E09A0169817A818B819C810E94F006CD
:1002C00087FD4AC08CE091E089879A8769817A81AD
:1002D0008B819C810E94F5066D837E838F83988736
:1002E0000E9424079B01AC0169817A818B819C81EA
:1002F0000E94830620E23CEB4EEB5CE40E94DB07AD
:100300000E94F5069F938F937F936F9398859F9399
:10031000AF81AF93BE81BF938D818F939A859F9359
:10032000A985AF938FE291E09F938F9380EB91E04B
:100330009F938F930E9458080FB6F894DEBF0FBEAC
:10034000CDBF80EB91E02A960FB6F894DEBF0FBECA
:10035000CDBFDF91CF91089589819A81AB81BC8116
:10036000B05889839A83AB83BC83A9E1B1E0A987A4
:10037000BA87ACCFCF93C82F49E050E060E070E07F
:1003800087EA91E00E9448088C2F90E0880F892F1F
:10039000881F990B805D8093AE0180E3C6FD81E3E9
:1003A0008093AD0180E3C5FD81E38093AC0180E3E0
:1003B000C4FD81E38093AB0180E3C3FD81E38093BF
:1003C000AA0180E3C2FD81E38093A90180E3C1FD1E
:1003D00081E38093A801C170C05DC093A7018AE04A
:1003E0008093AF011092B00187EA91E0CF91089518
:1003F0001F920F920FB60F9211242F933F934F939A
:100400005F936F937F938F939F93AF93BF93EF937C
:10041000FF938091A3019091A401A091A501B091B7
:10042000A6010196A11DB11D8093A3019093A40183
:10043000A093A501B093A60116BCE091A101F09193
:10044000A2010995FF91EF91BF91AF919F918F917B
:100450007F916F915F914F913F912F910F900FBEC0
:100460000F901F901895FC01808121E001C0220FA0
:100470006A95EAF7822B80830895FC01208181E050
:1004800001C0880F6A95EAF78095822380830895DA
:10049000FC01808121E001C0220F6A95EAF78227E2
:1004A00080830895FC01208181E0062E01C0880F21
:1004B0000A94EAF78095822301C0440F6A95EAF70F
:1004C000842B8083089580918A0191E0892780930D
:1004D0008A018091C00085FD04C08091C00085FF25
:1004E000FCCF81E68093C60081E08093540108959B
:1004F0008F9389B1809353018F9118951F920F921A
:100500000FB60F9211242F933F934F935F936F93E6
:100510007F938F939F93AF93BF93EF93FF93CF936B
:10052000DF9300D000D0CDB7DEB78091510190911C
:100530005201019680935101909352018091C00025
:1005400087FD47C080915001811104C09091000146
:100550009F3FC9F0809300010F900F900F900F9074
:10056000DF91CF91FF91EF91BF91AF919F918F91CB
:100570007F916F915F914F913F912F910F900FBE9F
:100580000F901F9018958091C00085FFFCCF23E449
:1005900031E029833A831B821C8283E491E00E942C
:1005A0004F08EB81FC81E817F90708F017C080912C
:1005B000C00085FFFCCFE981FA818191E983FA834C
:1005C0008093C6002B813C812F5F3F4F2B833C8360
:1005D000E4CF8091C60080935001B6CF8091500146
:1005E000B9CF00D000D000D0CDB7DEB7F8941092CC
:1005F000C50093E09093C4008EE38093C200809185
:10060000C10088698093C10081E08093C00016BC5E
:1006100095BD14BC80936E0078942FE530E0209354
:10062000A1013093A201219A229A239A249A259A11
:10063000529880939701539880939801549880938F
:1006400099018091680084608093680080916D00BA
:10065000846080936D0080916D00886080936D0050
:1006600080916D00806180936D007894AA24A3949A
:1006700091E6992EBFC080918601B6247B2025B1DA
:100680002E7F90918501922B95B995B1880F9D7F12
:10069000892B85B995B180918701880F880F9B7F41
:1006A000892B85B995B180918801880F880F880FB3
:1006B000977F892B85B995B1809189018295807F3B
:1006C0009F7E892B85B995B180918A018295880F8B
:1006D000807E9F7D892B85B995B180918B01829514
:1006E000880F880F807C9F7B892B85B980918C0136
:1006F00080FD2F9A80FF2F9898B19E7F80918D0169
:10070000892B88B998B180918E01880F9D7F892BA4
:1007100088B998B180918F01880F880F9B7F892BB2
:1007200088B998B180919001880F880F880F977FC2
:10073000892B88B998B1809191018295807F9F7EA5
:10074000892B88B998B1809192018295880F807E1B
:100750009F7D892B88B998B1809193018295880FEC
:10076000880F807C9F7B892B88B98091940180FDC4
:10077000479A80FF47989BB19E7F80919501892B76
:100780008BB99BB180919601880F9D7F892B8BB986
:100790009BB180919701880F880F9B7F892B8BB924
:1007A0009BB180919801880F880F880F977F892BC4
:1007B0008BB99BB1809199018295807F9F7E892B17
:1007C0008BB99BB180919A018295880F807E9F7D25
:1007D000892B8BB99BB180919B018295880F880FE3
:1007E000807C9F7B892B8BB980919C0180FD5F9AD7
:1007F00080FF5F986091A3017091A4018091A50191
:100800009091A60126B52D830E94240725E831EB9F
:1008100045E85AE30E94DB0769837A838B839C83D4
:100820003D81632F70E080E090E00E9426072DEB71
:1008300037E346E856E30E94DB079B01AC01698180
:100840007A818B819C810E9484066B017C012091BE
:100850005A0130915B0140915C0150915D010E9411
:1008600083069F7720E030E040E05FE30E94D607F8
:1008700018160CF476C1809154018D838091A301E8
:100880009091A401A091A501B091A60186B5C09058
:100890005301C094E0907C016091A3017091A40188
:1008A0008091A5019091A601E6B5EE830E942407F0
:1008B00025E831EB45E85AE30E94DB0769837A8338
:1008C0008B839C83FE816F2F70E080E090E00E941C
:1008D00026072DEB37E346E856E30E94DB079B0132
:1008E000AC0169817A818B819C810E948406C2FC63
:1008F00029C1509181014091820130918301209161
:100900008401F901252F342F4F2F5E2F0E9483067B
:100910009F77209178013091790140917A0150912F
:100920007B010E94D60718160CF008C1DE2CDA24D1
:1009300080E080937C018091A3019091A401A0911B
:10094000A501B091A60186B5F0906F016091A30159
:100950007091A4018091A5019091A60126B52E83E6
:100960000E94240725E831EB45E85AE30E94DB07A3
:1009700069837A838B839C833E81632F70E080E060
:1009800090E00E9426072DEB37E346E856E30E94ED
:10099000DB079B01AC0169817A818B819C810E947C
:1009A0008406C3FCBCC0509170014091710130912C
:1009B000720120917301F901252F342F4F2F5E2FE3
:1009C0000E9483069F7720916B0130916C014091CA
:1009D0006D0150916E010E94D60718160CF49CC050
:1009E000F72080E080936F018091A3019091A40192
:1009F000A091A501B091A60186B5809162018E8378
:100A00006091A3017091A4018091A5019091A6012C
:100A100076B40E94240725E831EB45E85AE30E94AA
:100A2000DB0769837A838B839C83672D70E080E08A
:100A300090E00E9426072DEB37E346E856E30E943C
:100A4000DB079B01AC0169817A818B819C810E94CB
:100A50008406C4FC54C050916301409164013091FC
:100A6000650120916601F901252F342F4F2F5E2F4C
:100A70000E9483069F7720915E0130915F01409133
:100A80006001509161010E94D6071816ACF19E8159
:100A90009821998380E08093620180915701D092E0
:100AA00057018E219091590189278F2579807826C9
:100AB000709259016090550191E0E9818E1390E0A8
:100AC00090935501672081E0B61080E0882E872042
:100AD000882D8A2580938701FD81F1115EC01092D7
:100AE0005401809150018F3F09F0C5CD809186015E
:100AF0008A2580938601C1CD81E01982CCCF562F03
:100B0000472F382F292F60936301709364018093DE
:100B1000650190936601A7CF81E0F12C63CF8B0133
:100B20009C01609370011093710180937201309366
:100B30007301562F472F382F292F3DCF81E0D82E14
:100B4000E12CF7CE8B019C0160938101109382010F
:100B50008093830130938401562F472F382F292FFC
:100B6000D0CEC0925A01D0925B01E0925C01F0922B
:100B70005D0180918A018A2580938A018091C0005D
:100B800085FD04C08091C00085FFFCCF9092C60017
:100B9000A092540191E09D8371CE20915001298350
:100BA00040E250E060E070E080EF91E00E94480891
:100BB0001F921F921F9239813F938DE091E09F9386
:100BC0008F9380EF91E09F938F930E9458088091BC
:100BD000C0000FB6F894DEBF0FBECDBF85FD04C0C8
:100BE0008091C00085FFFCCF80EFE82E81E0F82ED9
:100BF000670119821A8280EF91E00E944F08E98113
:100C0000FA81E817F90708F010C08091C00085FF4D
:100C1000FCCFF60181916F018093C60029813A8152
:100C20002F5F3F4F29833A83E6CF8091540181158E
:100C300009F455CF2090510130905201432C440CBF
:100C4000440840E250E060E070E080EF91E00E94F4
:100C500048084F924F923F922F922DE031E03F9300
:100C60002F9380EF91E09F938F930E94580880917B
:100C7000C0000FB6F894DEBF0FBECDBF85FD04C027
:100C80008091C00085FFFCCF19821A8280EF91E02D
:100C90000E944F08E981FA81E817F90708F01FCF91
:100CA0008091C00085FFFCCFF70181917F01809387
:100CB000C60029813A812F5F3F4F29833A83E6CFCF
:100CC0008DEC9CECACECBDE38093780190937901C2
:100CD000A0937A01B0937B0180936B0190936C0198
:100CE000A0936D01B0936E0180935E0190935F01BC
:100CF000A0936001B09361010895EE0FFF1F05906E
:100D0000F491E02D09945058BB27AA270E949B0616
:100D10000C949C070E948E0738F00E94950720F0E3
:100D200039F49F3F19F426F40C948B070EF4E095E8
:100D3000E7FB0C948507E92F0E94AD0758F3BA171B
:100D4000620773078407950720F079F4A6F50C94E1
:100D5000CF070EF4E0950B2EBA2FA02D0B01B90191
:100D600090010C01CA01A0011124FF27591B99F021
:100D7000593F50F4503E68F11A16F040A22F232F2D
:100D8000342F4427585FF3CF469537952795A7957D
:100D9000F0405395C9F77EF41F16BA0B620B730B24
:100DA000840BBAF09150A1F0FF0FBB1F661F771F95
:100DB000881FC2F70EC0BA0F621F731F841F48F44A
:100DC000879577956795B795F7959E3F08F0B0CFD3
:100DD0009395880F08F09927EE0F979587950895BA
:100DE0000E94610708F481E008950E94B50788F029
:100DF0009F5798F0B92F9927B751B0F0E1F0660FDF
:100E0000771F881F991F1AF0BA95C9F714C0B1301F
:100E100091F00E94CF07B1E008950C94CF07672F9F
:100E2000782F8827B85F39F0B93FCCF3869577954E
:100E30006795B395D9F73EF4909580957095619537
:100E40007F4F8F4F9F4F0895E89409C097FB3EF462
:100E500090958095709561957F4F8F4F9F4F992307
:100E6000A9F0F92F96E9BB279395F6958795779585
:100E70006795B795F111F8CFFAF4BB0F11F460FF45
:100E80001BC06F5F7F4F8F4F9F4F16C0882311F09D
:100E900096E911C0772321F09EE8872F762F05C0B1
:100EA000662371F096E8862F70E060E02AF09A954C
:100EB000660F771F881FDAF7880F9695879597F941
:100EC0000895990F0008550FAA0BE0E8FEEF1616DB
:100ED0001706E807F907C0F012161306E407F5072E
:100EE00098F0621B730B840B950B39F40A2661F0A2
:100EF000232B242B252B21F408950A2609F4A14045
:100F0000A6958FEF811D811D089597F99F6780E851
:100F100070E060E008959FEF80EC089500240A944B
:100F20001616170618060906089500240A941216C4
:100F30001306140605060895092E0394000C11F4F7
:100F4000882352F0BB0F40F4BF2B11F460FF04C0A4
:100F50006F5F7F4F8F4F9F4F089557FD9058440FFD
:100F6000551F59F05F3F71F04795880F97FB991F08
:100F700061F09F3F79F087950895121613061406C5
:100F8000551FF2CF4695F1DF08C016161706180652
:100F9000991FF1CF86957105610508940895E8942D
:100FA000BB2766277727CB0197F908950E94610731
:100FB00008F48FEF08950E94EE070C949C070E949E
:100FC0008E0738F00E94950720F0952311F00C94BD
:100FD00085070C948B0711240C94D0070E94AD0751
:100FE00070F3959FC1F3950F50E0551F629FF0017C
:100FF000729FBB27F00DB11D639FAA27F00DB11D95
:10100000AA1F649F6627B00DA11D661F829F22271D
:10101000B00DA11D621F739FB00DA11D621F839FA4
:10102000A00D611D221F749F3327A00D611D231F7A
:10103000849F600D211D822F762F6A2F11249F57C8
:1010400050409AF0F1F088234AF0EE0FFF1FBB1FCB
:10105000661F771F881F91505040A9F79E3F51058A
:1010600080F00C9485070C94D0075F3FE4F3983E22
:10107000D4F3869577956795B795F795E7959F5F34
:10108000C1F7FE2B880F911D9695879597F90895C6
:10109000DC0101C06D9341505040E0F70895FC0120
:1010A00001900020E9F7809590958E0F9F1F08957D
:1010B000AEE0B0E0EEE5F8E00C94290B86E08C831E
:1010C0002B893C8929833A838FEF9FE78D839E8309
:1010D000AE01495E5F4F6D897E89CE0101960E9407
:1010E0007C08EF81F8852B893C89E20FF31F108281
:1010F0002E96E2E00C94450BABE0B0E0E2E8F8E0BD
:101100000C941C0B6C017B018A01FC011682178276
:10111000838181FFDFC13AE0532EF6012381F7017D
:1011200023FD859123FF81917F01811509F437C14A
:10113000853239F423FD959123FF91917F019532FA
:1011400029F4B60190E00E94830AE7CF30E0912CA9
:10115000612C712CF0E27F1640F59B32D9F058F4E7
:101160009032D1F09332F1F09E3291F576FC17C1B6
:10117000689476F806C09D3291F09033C1F468947B
:1011800070F8F70123FD959123FF91917F01911153
:10119000E1CF28C0689471F8689472F8F2CF68942F
:1011A00073F8EFCF689474F8ECCF77FC1BC080ED38
:1011B000890F8A30C8F676FE05C0959C800D1124F3
:1011C000982EDFCF659C800D1124682E7F2AD9CF01
:1011D0009C3619F4689477F8D4CF9C3409F445C050
:1011E000983679F2892F8F7D8554833008F43FC07B
:1011F000933609F461C0933709F46BC0933509F451
:1012000077C0943619F0993609F0A4C0F80177FE3A
:101210009AC061917191819191918F01272D2F76C3
:10122000822E97FF04C00E94110B689487F82AE071
:1012300030E05E014FEFA41AB40AA5010E94B30A80
:10124000782E7A1886FECFC0882D8E7F791408F00C
:10125000C9C084FE1DC182FC11C12EEE8222B92CB0
:10126000882D867809F4CBC00EC131E08ACF3115C4
:1012700001F1085F1F4F8FE3898321E0822E912CBB
:101280005E012FEFA21AB20AE89477F873FC03C04C
:1012900086149104F0F18114910409F041C06114A5
:1012A00009F43BCFB60180E290E00E94830A6A9481
:1012B000F6CF0C5F1F4FDFCFF801808189830E5F6F
:1012C0001F4F91E0892E912C5E01FFEFAF1ABF0AEC
:1012D000DBCFF801A190B1908F01692D70E076FC11
:1012E00002C06FEF7FEFC5010E94780A4C01CCCF9E
:1012F000F801A190B1908F01692D70E076FC02C0D9
:101300006FEF7FEFC5010E946D0A4C01689477F87A
:10131000BDCFB60180E290E00E94830A6A94B8CF04
:10132000F50177FC859177FE81915F01B60190E030
:101330000E94830A81E0611001C080E0681AF1E038
:101340008F1A9108A8CF61917191872F880F880B10
:10135000982F63CF9537C9F4872CE89484F82AE056
:1013600030E0F80187FE39C06191719181919191CE
:101370008F015E01FFEFAF1ABF0AA5010E94B30AF9
:10138000782E7A18E89487F85DCF872D897F882E8C
:10139000903799F058F49835A9F09F36D9F0F601B6
:1013A000868197812B96EFE00C94380B9837B9F72C
:1013B00074FC05C020E130E0D4CF689484F86894D0
:1013C00082F8F8CF74FE03C0E72DE6608E2E20E190
:1013D00032E0C7CF28E030E0C4CF6191719180E066
:1013E00090E0C6CF882EB72C84FE3ACFFE01E70DE1
:1013F000F11D8081803309F044C049EE842283FCD2
:101400000EC080FE51C0972CB61418F4960C9B1891
:10141000B62C862D8B196B1408F480E0B80EB61428
:1014200008F044C06B1884FE43C0B60180E390E02E
:101430000E94830A82FE09C088E590E081FC02C018
:1014400088E790E0B6010E94830A7914E0F15E011A
:101450008FEFA81AB80A7A9482E0882E912C8C0E0D
:101460009D1E870C911CF40182914F01B60190E002
:101470000E94830A8A149B04B1F711CFB92C882EDD
:10148000B5CF82FC02C0B394BACFB394B394B7CFB4
:10149000B92C882EE5CEB60180E290E00E94830A46
:1014A000A394A614C0F3B5CFAB2CFBCF612CBBCF5C
:1014B000882D867851F280E281FC8BE287FC8DE2F8
:1014C000B60190E0C0CFB60180E390E00E94830AAD
:1014D0009A94BBCF8FEF9FEF65CFFC0105906150D1
:1014E00070400110D8F7809590958E0F9F1F08953A
:1014F000FC016150704001900110D8F780959095E3
:101500008E0F9F1F08950F931F93CF93DF93182F74
:10151000092FEB018B8181FD09C00FEF1FEF812F98
:10152000902FDF91CF911F910F91089582FF14C0EA
:101530002E813F818C819D81281739073CF4E881F9
:10154000F981CF0101968883998310838E819F81D1
:1015500001968E839F83E3CFE885F985812F0995D6
:10156000892BA1F3DACFFA01AA27283051F12031D3
:1015700081F1E8946F936E7F6E5F7F4F8F4F9F4F27
:10158000AF4FB1E03ED0B4E03CD0670F781F891F69
:101590009A1FA11D680F791F8A1F911DA11D6A0F37
:1015A000711D811D911DA11D20D009F468943F91EA
:1015B0002AE0269F11243019305D3193DEF6CF01E9
:1015C0000895462F4770405D4193B3E00FD0C9F7AF
:1015D000F6CF462F4F70405D4A3318F0495D31FD1C
:1015E0004052419302D0A9F7EACFB4E0A69597956F
:1015F000879577956795BA95C9F700976105710545
:1016000008959B01AC010A2E06945795479537958E
:101610002795BA95C9F7620F731F841F951FA01DE8
:10162000089590958095709561957F4F8F4F9F4F4E
:1016300008952F923F924F925F926F927F928F9276
:101640009F92AF92BF92CF92DF92EF92FF920F9351
:101650001F93CF93DF93CDB7DEB7CA1BDB0B0FB65B
:10166000F894DEBF0FBECDBF09942A883988488818
:101670005F846E847D848C849B84AA84B984C884AE
:10168000DF80EE80FD800C811B81AA81B981CE0FA5
:10169000D11D0FB6F894DEBF0FBECDBFED0108958A
:0416A000F894FFCFEC
:1016A400FF56616C75653A20256C690A0056616CB9
:1016B40075653A20256C750A002D0056616C7565B8
:1016C4003A202573256C752E2530346C750A005626
:1016D400616C75653A202573256C752E2530386C40
:1016E400750A00545241434520535441525400005A
:00000001FF
