:100000000C9435000C945D000C945D000C945D0024
:100010000C945D000C9471020C945D000C945D00D6
:100020000C945D000C945D000C945D000C945D00DC
:100030000C945D000C945D000C945D000C945D00CC
:100040000C94ED010C945D000C945D000C945D002B
:100050000C945D000C945D000C945D000C945D00AC
:100060000C945D000C945D00A20511241FBECFEF1F
:10007000D8E0DEBFCDBF11E0A0E0B1E0E8EEF4E1F2
:1000800002C005900D92A234B107D9F722E0A2E494
:10009000B1E001C01D92AF31B207E1F710E0C5E356
:1000A000D0E004C02197FE010E94BF05C433D107F0
:1000B000C9F70E9480020C94720A0C940000089503
:1000C0000F931F93CF93DF93EB01182F092F40E27B
:1000D00050E070E060E08FEF91E00E948A070F939C
:1000E0001F93DF93CF9380E091E09F938F938FEFE7
:1000F00091E09F938F930E949A078DB79EB70896C1
:100100000FB6F8949EBF0FBE8DBF8FEF91E0DF91C9
:10011000CF911F910F9108950F931F93CF93DF936A
:10012000EB01182F092F40E250E070E060E08FED06
:1001300091E00E948A070F931F93DF93CF938CE087
:1001400091E09F938F938FED91E09F938F930E9407
:100150009A078DB79EB708960FB6F8949EBF0FBE4C
:100160008DBF8FED91E0DF91CF911F910F91089599
:10017000AF92BF92CF92DF92EF92FF920F931F93B5
:10018000CF93DF936B017C0140E250E070E060E0D0
:100190008FEB91E00E948A0720E030E0A901C701BF
:1001A000B6010E943206CBE0D1E087FF06C0F7FA25
:1001B000F094F7F8F094C8E1D1E0C701B6010E94CD
:1001C0003706162F072FB82EA92E0E9466069B0110
:1001D000AC01C701B6010E94C50520E030E44CE146
:1001E00056E40E941D070E9437069F938F937F93CA
:1001F0006F93AF92BF920F931F93DF93CF938AE1D8
:1002000091E09F938F938FEB91E09F938F930E9448
:100210009A078DB79EB70E960FB6F8949EBF0FBE85
:100220008DBF8FEB91E0DF91CF911F910F91FF90E8
:10023000EF90DF90CF90BF90AF900895AF92BF92B4
:10024000CF92DF92EF92FF920F931F93CF93DF93A2
:100250006B017C0140E250E070E060E08FE991E0EA
:100260000E948A0720E030E0A901C701B6010E9480
:100270003206CBE0D1E087FF06C0F7FAF094F7F83A
:10028000F094C8E1D1E0C701B6010E943706162FED
:10029000072FB82EA92E0E9466069B01AC01C7014C
:1002A000B6010E94C50520E23CEB4EEB5CE40E94E7
:1002B0001D070E9437069F938F937F936F93AF9292
:1002C000BF920F931F93DF93CF938EE291E09F93A2
:1002D0008F938FE991E09F938F930E949A078DB738
:1002E0009EB70E960FB6F8949EBF0FBE8DBF8FE9D6
:1002F00091E0DF91CF911F910F91FF90EF90DF90F0
:10030000CF90BF90AF900895CF93C82F49E050E0B1
:1003100070E060E086E991E00E948A078C2F90E00F
:100320009C01220F232F221F330B232B79F121E372
:1003300020939D0186FF2FC021E320939C0185FF20
:100340002FC021E320939B0184FF2FC021E3209342
:100350009A0183FF2FC021E32093990182FF2FC0D0
:1003600021E32093980181FF2FC081E380939701BF
:10037000C0FF2FC081E3809396018AE080939E01A5
:1003800010929F0186E991E0CF91089520E3209398
:100390009D0186FDD1CF20E320939C0185FDD1CF27
:1003A00020E320939B0184FDD1CF20E320939A0189
:1003B00083FDD1CF20E32093990182FDD1CF20E3AB
:1003C0002093980181FDD1CF80E380939701C0FDF8
:1003D000D1CF80E380939601D0CF1F920F920FB6BA
:1003E0000F9211242F933F934F935F936F937F93BB
:1003F0008F939F93AF93BF93EF93FF93809192015D
:1004000090919301A0919401B09195010196A11D45
:10041000B11D8093920190939301A0939401B093A6
:10042000950116BCE0919001F09191010995FF9121
:10043000EF91BF91AF919F918F917F916F915F915C
:100440004F913F912F910F900FBE0F901F901895D5
:10045000FC01908121E030E001C0220F6A95EAF7AB
:10046000922B90830895FC01408121E030E001C08F
:10047000220F6A95EAF72095242320830895FC0132
:10048000908121E030E001C0220F6A95EAF79227BF
:1004900090830895FC01508121E030E0062E01C0D8
:1004A000220F0A94EAF72095252301C0440F6A958C
:1004B000EAF7242B208308958091790191E0892720
:1004C000809379018091C00085FD04C08091C000B7
:1004D00085FFFCCF81E68093C60081E080934301D5
:1004E00008951F920F920FB60F9211248F9389B126
:1004F000809342018F910F900FBE0F901F9018951F
:10050000CF93DF931F92CDB7DEB778941092C500DA
:1005100093E09093C4008EE38093C2008091C10069
:1005200088618093C10081E08093C00016BC95BDB6
:1005300014BC80936E0078942FE530E030939101E5
:1005400020939001219A229A239A249A259A5298CC
:1005500080938601539880938701549880938801F3
:100560008091680084608093680080916D00846051
:1005700080936D0080916D00886080936D00809104
:100580006D00806180936D00EE24E3949CE0A92EC1
:1005900091E0B92ECCC17091700160917101909180
:1005A000720180917301272F362F492F582FBD01DB
:1005B0008F2F9E2F0E94C5059F7720916701309154
:1005C00068014091690150916A010E94180718164C
:1005D0000CF440C2E0926B0188248394912C8091AA
:1005E000920190919301A0919401B091950186B5EB
:1005F000D0905E016091920170919301809194017D
:1006000090919501F6B40E94660625E831EB45E825
:100610005AE30E941D072B013C016F2D70E090E012
:1006200080E00E9468062DEB37E346E856E30E941F
:100630001D079B01AC01C301B2010E94C605F62F44
:10064000E72FDC0113FDF7C170915F01609160013C
:100650009091610180916201272F362F492F582FE9
:100660006F2F7E2FCD010E94C5059F7720915A01E3
:1006700030915B0140915C0150915D010E9418072F
:1006800018160CF0FBC1E0925E01212C80919201C2
:1006900090919301A0919401B091950186B5F0904D
:1006A0005101609192017091930180919401909118
:1006B0009501D6B40E94660625E831EB45E85AE379
:1006C0000E941D072B013C016D2D70E090E080E041
:1006D0000E9468062DEB37E346E856E30E941D07AB
:1006E0009B01AC01C301B2010E94C605F62FE72FA2
:1006F000DC0114FDB4C170915201609153019091DD
:10070000540180915501272F362F492F582F6F2FD5
:100710007E2FCD010E94C5059F7720914D0130911C
:100720004E0140914F01509150010E941807181638
:100730000CF0A8C1E092510100E080914601809246
:10074000460198228091480198262924822D8027ED
:10075000809348019091440121E0201220E02093F1
:10076000440198231C2D1927282E212201E0C912AB
:1007700000E00823802F8E25809376018091C000B1
:10078000F98087FF03C0F090C600F98231109EC146
:1007900010924301F1E6FF1609F478C11092750139
:1007A00085B18E7F90917401892B85B995B1809127
:1007B0007501880F9D7F892B85B995B18091760150
:1007C000880F880F9B7F892B85B995B18091770120
:1007D000880F880F880F977F892B85B985B1209165
:1007E000780190E1299F900111248F7E822B85B999
:1007F00085B120917901E0E22E9F900111248F7D37
:10080000822B85B985B120917A01F0E42F9F900168
:1008100011248F7B822B85B980917B0180FD2F9ADB
:1008200080FF2F9888B18E7F90917C01892B88B9A9
:1008300098B180917D01880F9D7F892B88B998B1EF
:1008400080917E01880F880F9B7F892B88B998B192
:1008500080917F01880F880F880F977F892B88B937
:1008600088B12091800190E1299F900111248F7E11
:10087000822B88B988B120918101E0E22E9F9001FE
:1008800011248F7D822B88B988B120918201F0E4F8
:100890002F9F900111248F7B822B88B98091830137
:1008A00080FD479A80FF47988BB18E7F909184019D
:1008B000892B8BB99BB180918501880F9D7F892BF6
:1008C0008BB99BB180918601880F880F9B7F892B04
:1008D0008BB99BB180918701880F880F880F977F14
:1008E000892B8BB98BB12091880190E1299F9001D0
:1008F00011248F7E822B8BB98BB120918901E0E28C
:100900002E9F900111248F7D822B8BB98BB120916A
:100910008A01F0E42F9F900111248F7B822B8BB9E9
:1009200080918B0180FD5F9A80FF5F98C12E60915E
:10093000920170919301809194019091950116B567
:100940000E94660625E831EB45E85AE30E941D0740
:100950002B013C01612F70E090E080E00E9468066E
:100960002DEB37E346E856E30E941D079B01AC01DF
:10097000C301B2010E94C6052B013C01209149012F
:1009800030914A0140914B0150914C010E94C505A4
:100990009F7720E030E040E05FE30E94180730904E
:1009A000430118160CF475C0809192019091930147
:1009B000A0919401B091950186B5109142011095D6
:1009C00090906B01609192017091930180919401DC
:1009D00090919501F6B40E94660625E831EB45E852
:1009E0005AE30E941D072B013C016F2D70E090E03F
:1009F00080E00E9468062DEB37E346E856E30E944C
:100A00001D079B01AC01C301B2010E94C605DB01B9
:100A1000F82FE92F12FFBFCDAB01682F792F40933C
:100A200070015093710160937201709373017A2F7A
:100A30006B2FCF01B8CD462F572FBC0140935F01DC
:100A4000509360016093610170936201BF01982F20
:100A50008B2F02CE10926B01892C8E24C0CD462F95
:100A6000572FBC014093520150935301609354019E
:100A700070935501BF01982F8B2F45CE10925E01C8
:100A80002D2004CE109251010F2157CEE092750116
:100A900087CE4092490150924A0160924B01709278
:100AA0004C01809179018E25809379018091C0005D
:100AB00085FD04C08091C00085FFFCCF21E6209316
:100AC000C600E0924301332433946ECF40E250E0FD
:100AD00070E060E08FED91E00E948A071F921F9204
:100AE0001F92FF92BF92AF928FED91E09F938F93F1
:100AF0000E949A078091C0000FB6F894DEBF0FBE27
:100B0000CDBF85FD04C08091C00085FFFCCF8FED77
:100B1000C82E81E0D82E8FED91E00E9491079601BA
:100B20002F5D31402817390708F00AC08091C000B6
:100B300085FFFCCFF60181916F018093C600EBCF5A
:100B4000F98026CE8DEC9CECACECBDE38093670184
:100B500090936801A0936901B0936A0180935A0150
:100B600090935B01A0935C01B0935D0180934D0174
:100B700090934E01A0934F01B09350010895EE0F52
:100B8000FF1F0590F491E02D09945058BB27AA2728
:100B90000E94DD050C94DE060E94D00638F00E940B
:100BA000D70620F039F49F3F19F426F40C94CD06B3
:100BB0000EF4E095E7FB0C94C706E92F0E94EF06C0
:100BC00058F3BA17620773078407950720F079F482
:100BD000A6F50C9411070EF4E0950B2EBA2FA02D5C
:100BE0000B01B90190010C01CA01A0011124FF27DA
:100BF000591B99F0593F50F4503E68F11A16F040D5
:100C0000A22F232F342F4427585FF3CF46953795D3
:100C10002795A795F0405395C9F77EF41F16BA0B98
:100C2000620B730B840BBAF09150A1F0FF0FBB1F46
:100C3000661F771F881FC2F70EC0BA0F621F731F8F
:100C4000841F48F4879577956795B795F7959E3FEC
:100C500008F0B0CF9395880F08F09927EE0F97957D
:100C6000879508950E94A30608F481E008950E94E4
:100C7000F70688F09F5798F0B92F9927B751B0F031
:100C8000E1F0660F771F881F991F1AF0BA95C9F710
:100C900014C0B13091F00E941107B1E008950C9496
:100CA0001107672F782F8827B85F39F0B93FCCF349
:100CB000869577956795B395D9F73EF4909580958D
:100CC000709561957F4F8F4F9F4F0895E89409C0AD
:100CD00097FB3EF490958095709561957F4F8F4F6F
:100CE0009F4F9923A9F0F92F96E9BB279395F69585
:100CF000879577956795B795F111F8CFFAF4BB0F03
:100D000011F460FF1BC06F5F7F4F8F4F9F4F16C066
:100D1000882311F096E911C0772321F09EE8872FF0
:100D2000762F05C0662371F096E8862F70E060E0AC
:100D30002AF09A95660F771F881FDAF7880F969525
:100D4000879597F90895990F0008550FAA0BE0E8C9
:100D5000FEEF16161706E807F907C0F0121613067D
:100D6000E407F50798F0621B730B840B950B39F4BD
:100D70000A2661F0232B242B252B21F408950A2623
:100D800009F4A140A6958FEF811D811D089597F963
:100D90009F6780E870E060E008959FEF80EC089521
:100DA00000240A941616170618060906089500244A
:100DB0000A9412161306140605060895092E0394C4
:100DC000000C11F4882352F0BB0F40F4BF2B11F438
:100DD00060FF04C06F5F7F4F8F4F9F4F089557FD97
:100DE0009058440F551F59F05F3F71F04795880F99
:100DF00097FB991F61F09F3F79F087950895121630
:100E000013061406551FF2CF4695F1DF08C01616DB
:100E100017061806991FF1CF86957105610508948C
:100E20000895E894BB2766277727CB0197F90895A3
:100E30000E94A30608F48FEF08950E9430070C94D7
:100E4000DE060E94D00638F00E94D70620F09523D7
:100E500011F00C94C7060C94CD0611240C941207C3
:100E60000E94EF0670F3959FC1F3950F50E0551F58
:100E7000629FF001729FBB27F00DB11D639FAA27EF
:100E8000F00DB11DAA1F649F6627B00DA11D661F3E
:100E9000829F2227B00DA11D621F739FB00DA11D5F
:100EA000621F839FA00D611D221F749F3327A00D19
:100EB000611D231F849F600D211D822F762F6A2FB5
:100EC00011249F5750409AF0F1F088234AF0EE0F1A
:100ED000FF1FBB1F661F771F881F91505040A9F747
:100EE0009E3F510580F00C94C7060C9412075F3F9B
:100EF000E4F3983ED4F3869577956795B795F79583
:100F0000E7959F5FC1F7FE2B880F911D96958795FA
:100F100097F90895DC0101C06D9341505040E0F70E
:100F20000895FC0101900020E9F7809590958E0FBF
:100F30009F1F0895AEE0B0E0E0EAF7E00C94490AA4
:100F40000D891E8986E08C831A8309838FEF9FE7C2
:100F50009E838D83AE01475E5F4F6F89788DCE0192
:100F600001960E94BD072F813885020F131FF801DB
:100F700010822E96E4E00C94650AABE0B0E0E3EC5E
:100F8000F7E00C943B0A7C013B018A01FC011782CB
:100F90001682838181FFC8C1CE0101965C01F701F1
:100FA0009381F30193FD859193FF81913F01882304
:100FB00009F453C1853239F493FD859193FF8191F2
:100FC0003F01853229F4B70190E00E94AD09E7CFD7
:100FD000912C212C312CFFE1F31538F08B3211F1DB
:100FE00090F4803209F1833229F137FC3CC020EDC6
:100FF000280F2A3050F536FE20C08AE0989E200D3A
:101000001124922E06C08D3291F0803371F76894CE
:1010100030F8F30193FD859193FF81913F01811198
:10102000DACF21C0689431F8689432F8F2CF68942E
:1010300033F8EFCF689434F8ECCFEAE02E9E200D21
:101040001124222E689435F8E4CF8E3229F436FC30
:1010500004C1689436F8DDCF8C3619F4689437F8FB
:10106000D8CF8836B1F2982F9F7D95549330E0F019
:101070008336A1F18337C1F1833509F063C02801BC
:10108000F2E04F0E511CF801C080D180692D70E054
:1010900036FC02C06FEF7FEFC6010E9497094C013A
:1010A000689437F882010AC00C5F1F4FFFE3F98391
:1010B00088248394912C6501E89437F833FE2DC081
:1010C000522C8114910471F5552009F468CFB701B1
:1010D00080E290E00E94AD095A94F6CFF801808139
:1010E00089830E5F1F4FE4CF2801F2E04F0E511CA1
:1010F000F801C080D180692D70E036FC02C06FEF2E
:101100007FEFC6010E94A2094C018201D5CFB70131
:1011100080E290E00E94AD092A942814190409F095
:10112000B0F7CECFF60137FC859137FE81916F0184
:10113000B70190E00E94AD0951105A94F1E08F1A66
:101140009108BFCF843619F0893609F077C0F801CD
:1011500037FE6BC060817181828193810C5F1F4F6C
:10116000F32DFF763F2E97FF09C0909580957095DF
:1011700061957F4F8F4F9F4F689437F82AE030E09A
:10118000A5010E94DD09C82ECA188C2C432C36FEFE
:101190000CC0E89440F8C91440F434FE05C032FC99
:1011A00003C0F32DFE7E4F2E892C44FE95C0FE0118
:1011B000EC0DF11D8081803309F087C0242D297E3C
:1011C000422E842D8870582E43FC95C040FE8FC05F
:1011D0009C2C821418F42C0C922C981844FE91C06C
:1011E000B70180E390E00E94AD0942FE09C088E7A4
:1011F00090E041FE02C088E590E0B7010E94AD0991
:10120000C91408F48AC0CA94D12C9FEFC91AD90A0C
:10121000CA0CDB1CF60182916F01B70190E00E94BD
:10122000AD09AC14BD04B1F74FCF60817181072EB9
:10123000000C880B990B0E5F1F4F92CFD32CE894B4
:10124000D4F82AE030E0853739F1232D297FD22EDA
:101250008F3601F148F48835A9F0F701868197812E
:101260002B96E2E10C94570A803749F08837A9F7AA
:10127000D4FE02C06894D2F820E130E00DC068943A
:10128000D4F8F6CF34FE03C0822F8660D82E20E13A
:1012900032E002C028E030E0F801D7FE0FC06081E4
:1012A0007181828193810C5F1F4FA5010E94DD092E
:1012B000C82ECA183D2CE89437F867CF6081718139
:1012C00090E080E00E5F1F4FF0CF42FC02C083949D
:1012D00078CF8394839475CF842D867809F471CF69
:1012E000F6CFB70180E290E00E94AD0983948214AA
:1012F000C0F3512C73CF522C5818821408F46ECFBF
:10130000F8CF842D867809F47BCF8BE241FE80E212
:1013100047FC8DE2B70190E071CFB70180E390E028
:101320000E94AD099A946CCF8FEF9FEF99CFFC018B
:101330000590615070400110D8F7809590958E0F00
:101340009F1F0895FC016150704001900110D8F773
:10135000809590958E0F9F1F08950F931F93CF93A5
:10136000DF93182F092FEB018B8181FD09C01FEF3F
:101370000FEF812F902FDF91CF911F910F91089543
:1013800082FF14C02E813F818C819D8128173907EF
:101390003CF4E881F981CF01019699838883108319
:1013A0008E819F8101969F838E83E3CFE885F985A7
:1013B000812F0995892BA1F3DACFFA01AA272830CA
:1013C00051F1203181F1E8946F936E7F6E5F7F4F12
:1013D0008F4F9F4FAF4FB1E03ED0B4E03CD0670F8E
:1013E000781F891F9A1FA11D680F791F8A1F911DE1
:1013F000A11D6A0F711D811D911DA11D20D009F431
:1014000068943F912AE0269F11243019305D319372
:10141000DEF6CF010895462F4770405D4193B3E05B
:101420000FD0C9F7F6CF462F4F70405D4A3318F002
:10143000495D31FD4052419302D0A9F7EACFB4E0B3
:10144000A6959795879577956795BA95C9F700976B
:101450006105710508959B01AC010A2E069457950C
:10146000479537952795BA95C9F7620F731F841F63
:10147000951FA01D08952F923F924F925F926F92F9
:101480007F928F929F92AF92BF92CF92DF92EF9214
:10149000FF920F931F93CF93DF93CDB7DEB7CA1B95
:1014A000DB0B0FB6F894DEBF0FBECDBF09942A88C0
:1014B000398848885F846E847D848C849B84AA8468
:1014C000B984C884DF80EE80FD800C811B81AA81F5
:1014D000B981CE0FD11D0FB6F894DEBF0FBECDBFC0
:0814E000ED010895F894FFCF1F
:1014E80056616C75653A20256C690A0056616C7501
:1014F800653A20256C750A002D0056616C75653AB1
:10150800202573256C752E2530346C750A005661BC
:101518006C75653A202573256C752E2530386C75E9
:021528000A00B7
:00000001FF
